:020000040800F2
:10000000881B002015020008151100086D0D00085E
:10001000111100081D0800081F2000080000000042
:100020000000000000000000000000006B18000845
:10003000B108000800000000811500087D190008C3
:100040002F0200082F0200082F0200082F020008CC
:100050002F0200082F0200082F0200082F020008BC
:100060002F0200082F0200082F0200082F020008AC
:100070002F0200082F0200082F0200082F0200089C
:100080002F0200082F020008010500082F020008B7
:100090002F0200082F0200082F0200082F0200087C
:1000A0002F0200082F0200082F0200082F0200086C
:1000B0002F0200082F0200082F0200082F0200085C
:1000C0002F0200082F0200082F0200082F0200084C
:1000D0002F020008FD1D00082F0200082F02000853
:1000E0002F0200082F0200082F0200082F0200082C
:1000F0002F0200082F0200082F0200082F0200081C
:100100002F0200082F0200082F0200082F0200080B
:100110002F0200082F0200082F0200082F020008FB
:100120002F0200082F0200082F0200082F020008EB
:1001300000F002F800F05FF80AA090E8000C82449A
:100140008344AAF10107DA4501D100F054F8AFF277
:10015000090EBAE80F0013F0010F18BFFB1A43F0A5
:1001600001031847403B0000603B00000A444FF089
:10017000000C10F8013B13F0070408BF10F8014B06
:100180001D1108BF10F8015B641E05D010F8016B4B
:10019000641E01F8016BF9D113F0080F1EBF10F8AF
:1001A000014BAD1C0C1B09D16D1E58BF01F801CBD2
:1001B000FAD505E014F8016B01F8016B6D1EF9D555
:1001C0009142D6D37047000000230024002500266A
:1001D000103A28BF78C1FBD8520728BF30C148BFAA
:1001E0000B607047642900F08B80002070471FB5BA
:1001F0001FBD10B510BD00F051F91146FFF7F7FF14
:1002000002F0CEFA00F06FF903B4FFF7F2FF03BC7F
:1002100001F015FF0948804709480047FEE7FEE75F
:10022000FEE7FEE7FEE7FEE7FEE7FEE7FEE7FEE7A6
:1002300004480549054A064B70470000811900082B
:100240003101000888150020881B00208817002035
:1002500088170020704700000FB4044910B503AAA6
:10026000029800F005F910BC5DF814FB340C002076
:100270000FB41CB5074B06AA7B446946009005984D
:1002800000F0DDF80020694600F0ECF81CBC5DF8D9
:1002900014FB0000E90100002DE9F0410E46044680
:1002A000002020622046E168884730B3252805D029
:1002B000D4E901219047206A401CF2E7E16820461A
:1002C00000278847050018D0A5F14100192802D859
:1002D00020354FF400673246294620462760FFF755
:1002E00081FF40B1012804D0F61D26F0070608362C
:1002F000D8E7361DD6E72846DAE7206ABDE8F08160
:100300002DE9F0410646002410687529314616A5EE
:1003100010D0AFF30080002802DA404213A507E0B6
:1003200031688A0701D512A502E0490704D511A555
:10033000012401E0AFF3008000210A2206F1240726
:1003400009E0B0FBF2FCB0FBF2F302FB1C00303022
:1003500078541846491C0028F3D123462A463046D3
:10036000BDE8F04100F00CB8000000002D000000D6
:100370002B00000020000000704770477047704756
:100380002DE9F0470D4699469246044600F12408AF
:100390000168880604D5E06921F01001216000E0C1
:1003A0000120A84201DD471B00E00027A1697A195E
:1003B00002EB0900081AA0612078C00602D420468A
:1003C000AFF30080002608E0D4E901211AF8060006
:1003D0009047206A401C761C20624E45F4DB207852
:1003E000C0060AD52046AFF3008006E0D4E901211B
:1003F00030209047206A401C2062381EA7F1010778
:10040000F4DC07E0D4E9012118F805009047206AE0
:10041000401C2062281EA5F10105F3DC2046AFF345
:1004200000802078000602D50220BDE8F087012078
:10043000FBE7000001694A1C02610878704700B5BB
:100440008FB0CDE901310021059105497944CDE90D
:10045000031011466846FFF71FFF0FB000BD0000F4
:10046000E5FFFFFF0A6802F8010B0A607047000011
:10047000074B70B50D467B44FFF7E1FF0446284665
:1004800000F008F810B14FF0FF3070BD204670BD8D
:100490008F210000007B00F080007047754600F05F
:1004A0002BF8AE4605006946534620F00700854606
:1004B00018B020B5FFF7BCFEBDE820404FF00006A5
:1004C0004FF000074FF000084FF0000B21F007013C
:1004D000AC46ACE8C009ACE8C009ACE8C009ACE87F
:1004E000C0098D46704710B50446AFF30080204622
:1004F000BDE81040FFF788BE004870472415002073
:1005000010B54FF40871074800F0ADF8012803D189
:10051000044800F09BF804464FF40871014800F0CD
:1005200003F810BD0024014000220A12D3430360E7
:10053000704721B1826842F00102826003E0826864
:1005400022F001028260704700B587B001214FF4AC
:10055000017001F043F84FF4004001F013F801205E
:10056000ADF8040000208DF8070001A9194800F03B
:10057000ABFA194800F032F8002002908DF80C0018
:100580008DF80D004FF460200490002005900120AC
:100590008DF8180002A9104800F082F8012000F040
:1005A0002BF901210C48FFF7C4FF0B4800F00FF9AD
:1005B00000BF094800F069F80028FAD1064800F0A9
:1005C00016F900BF044800F037F80028FAD107B048
:1005D00000BD0000000801400024014010B50446A1
:1005E0001248844208D10121401501F007F800218A
:1005F000601501F003F817E00D48844208D101218D
:10060000001500F0FBFF0021201500F0F7FF0BE0C4
:100610000848844208D10121C80300F0EFFF0021FF
:100620004FF4004000F0EAFF10BD0000002401403C
:1006300000280140003C0140014600208A6802F089
:1006400004020AB1012000E0002070470146C86C96
:1006500080B270470246002013680B400BB10120A6
:1006600000E00020704770B50246002000230024FF
:100670000B125568CEB205EA060415681D4015B187
:100680000CB1012000E0002070BD014600208A6806
:1006900002F008020AB1012000E0002070470000CB
:1006A00030B502460020002350680F4C20400D79E1
:1006B0000C6844EA05242043506090680B4C2040AD
:1006C000D1E902542C434D7944EA4504204390601B
:1006D000D06A20F470000C7C641EE4B2234340EA2C
:1006E0000350D06230BD0000FFFEF0FFFDF7F1FFC8
:1006F00008B54FF4C06000F047FD12208DF80000EF
:1007000001208DF801008DF802008DF80300684685
:1007100000F002FD08BDF0B504460D4600200021A2
:10072000092D11DDE068A5F10A0606EB460707264C
:1007300006FA07F18843A5F10A0606EB460603FA16
:1007400006F10843E0600CE0206905EB4507072649
:1007500006FA07F1884305EB450603FA06F108435C
:100760002061072A0FDA606B561E06EB86071F26EC
:1007700006FA07F18843561E06EB860605FA06F1CF
:100780000843606322E00D2A0FDA206BD61F06EBC8
:1007900086071F2606FA07F18843D61F06EB860652
:1007A00005FA06F10843206310E0E06AA2F10D06A5
:1007B00006EB86071F2606FA07F18843A2F10D060D
:1007C00006EB860605FA06F10843E062F0BD816893
:1007D00041F008018160704721B1826842F4A002B3
:1007E000826003E0826822F4A00282607047816820
:1007F00041F004018160704730B10749096841F454
:100800000001054A116005E00349096821F400016F
:10081000014A1160704700000824014000BFFEE754
:1008200030B587B02E20039000F05EFA04466420B5
:1008300094FBF0F52A461DA104A8FFF719FD6420DA
:1008400094FBF0F100FB11452A4618A16846FFF71A
:100850000FFD00F0A3FC1A220021202000F056FD1D
:1008600019220021302000F051FD012200214020FA
:1008700000F04CFD02220021502000F047FD022331
:1008800004AA0321282000F06BFD022303AA032100
:10089000382000F065FD02236A460321402000F065
:1008A0005FFD204601F0BEFE07B030BD25640000AC
:1008B000704701B509E0002000E0401C4CF25031C7
:1008C0008842FAD30099491E009100990029F2D17B
:1008D00008BD000030B5044604254FF4302000F078
:1008E0006FF80546042D17D10C48006940F002004E
:1008F0000A49086108464461006940F04000086107
:100900004FF4302000F05CF805460448006941F6D9
:10091000FD71084001490861284630BD00200240B1
:1009200004200B49C96801F0010109B101200EE062
:100930000749C96801F0040109B1022007E0044930
:10094000C96801F0100109B1032000E004207047DC
:10095000002002400348006940F08000014908611E
:10096000704700000020024070B504460D46042682
:10097000F00200F025F80646042E11D1094800695E
:1009800040F00100074908612580F00200F018F8E6
:1009900006460448006941F6FE71084001490861B5
:1009A000304670BD002002400248034948600348B9
:1009B000486070472301674500200240AB89EFCDB6
:1009C00000B502460423FFF7ABFF034603E0FFF741
:1009D000A7FF0346521E012B01D1002AF7D102B90D
:1009E0000523184600BD000030B587B000BF2E209B
:1009F000039000F079F90446C4EB041000EB4000CA
:100A00004FF4486101EB8004642094FBF0F52A4622
:100A10001BA104A8FFF72CFC642094FBF0F100FB61
:100A200011452A4616A16846FFF722FC00F0B6FBE6
:100A300018220021202000F069FC1922002130201A
:100A400000F064FC01220021402000F05FFC022243
:100A50000021502000F05AFC022304AA0321282080
:100A600000F07EFC022303AA0321382000F078FC6A
:100A700002236A460321402000F072FC07B030BD1B
:100A8000256400001CB54FF44060ADF80400182048
:100A90008DF8070003208DF8060001A9084800F032
:100AA00013F88020ADF8000018208DF80300032013
:100AB0008DF802006946034800F006F81CBD0000EE
:100AC000000C0140000801402DE9F04102460025DC
:100AD0000026002000230024002791F803C00CF01A
:100AE0000F0591F803C00CF0100CBCF1000F03D0FF
:100AF00091F802C04CEA050591F800C0BCF1000F66
:100B000031D0146800202BE04FF0010C0CFA00F3F8
:100B1000B1F800C00CEA03069E4220D183004FF0DA
:100B20000F0C0CFA03F7BC4305FA03FC4CEA04046F
:100B300091F803C0BCF1280F06D14FF0010C0CFA5C
:100B400000FCC2F814C00AE091F803C0BCF1480FE1
:100B500005D14FF0010C0CFA00FCC2F810C0401C8B
:100B60000828D1D31460B1F800C0BCF1FF0F34DD08
:100B7000546800202EE000F1080C4FF0010808FA3C
:100B80000CF3B1F800C00CEA03069E4221D18300A9
:100B90004FF00F0C0CFA03F7BC4305FA03FC4CEAC8
:100BA000040491F803C0BCF1280F05D100F1080C32
:100BB00008FA0CF8C2F8148091F803C0BCF1480F91
:100BC00007D100F1080C4FF0010808FA0CF8C2F840
:100BD0001080401C0828CED35460BDE8F08100008E
:100BE000F0B50A46002300240021002500F000464D
:100BF000B6F1004F02D11D4EF16901E01B4E716844
:100C0000C0F3034583B200F44016B6F5401F08D187
:100C100021F07061154E766826F07066134F7E6085
:100C200012E000F48016B6F5801F06D1032606FAFE
:100C300005F4A14341F0706106E0460D360103FA68
:100C400006F6B14341F0706122B1460D360103FA58
:100C500006F6314300F00046B6F1004F02D1034ED4
:100C6000F16101E0014E7160F0BD00000000014043
:100C70000246002093680B400BB1012000E00020E9
:100C80007047000010B50446072301222146094899
:100C9000FFF741FD01210748FFF79EFD00BF02213C
:100CA0000448FFF7D7FC0028F9D00248FFF7CEFC34
:100CB00010BD0000002401402DE9F04107460C461C
:100CC0000025002608E03846FFF7DCFF0544052034
:100CD00001F0F0FA701CC6B2A642F4DBB5FBF4F0EA
:100CE00080B2BDE8F08100002DE9F05F1421002002
:100CF000FFF7E2FF8346584602F09AFA804602F078
:100D000037FA06464FF06632114B02F049F80446B6
:100D10000D4622462B460F480F4902F03FF9804608
:100D20000E4A0F4B01F0B4FE064600220D4B01F0B7
:100D300007FE04460D4600220B4B2046294602F0D2
:100D40002FF8064601F0FCFF82465046BDE8F09FB2
:100D500066664A3FE17A14AE47E1F63F22FDF6753A
:100D6000E09C713F000039400000594000BFFEE7A1
:100D700070B502460024002500230020958A138BBD
:100D80001B0445EA030626F07F4404EA01068E426E
:100D900001D1012000E0002070BD21B1028842F0A5
:100DA0000102028004E002884FF6FE731A400280BE
:100DB0007047000000B585B00121480500F0EEFB4A
:100DC0000121082000F00AFCC020ADF8000003203B
:100DD0008DF802001C208DF8030069461148FFF7CA
:100DE00073FE114800F024F80020ADF808004BF61F
:100DF000FF70ADF80A003020ADF80C004FF48060B1
:100E0000ADF80E000001ADF8100008480190012176
:100E10000548FFF7C2FF01A9034800F05BF805B0E1
:100E200000BD0000000C01400054004040420F0093
:100E300010B504460B48844209D10121480500F051
:100E4000BDFB00214FF4001000F0B8FB08E00121C9
:100E5000880500F0B3FB00214FF4800000F0AEFBEA
:100E600010BD00000054004021B1028842F480729D
:100E7000028004E002884FF6FF631A400280704748
:100E800021B1028842F40072028004E002884FF629
:100E9000FF531A40028070470CB502460020002321
:100EA0000193009300920B0F019321F07F41019B6E
:100EB0001BB1009B1433009303E0090C009B183313
:100EC0000093009B1B680B400BB1012000E0002049
:100ED0000CBD00002DE9F04385B004460D46002608
:100EE000B1460427DFF8CC80A6884FF6C0700640D4
:100EF000684600F0B5FBDDF808802F48B8FBF0F03D
:100F00001FFA80F946EA0906A68020884FF6FE718E
:100F10000840208000262949286888420CD8286883
:100F20004000B8FBF0F087B2042F00DA04273E43FC
:100F300009F10100208427E0E8884BF6FF71884220
:100F400006D1286800EB4000B8FBF0F087B209E05A
:100F5000286800EBC00101EB0010B8FBF0F087B28D
:100F600047F48047C7F30B0008B947F0010747F47F
:100F7000004006434FF4967009FB00F04FF47A717D
:100F800090FBF1F0401C2084A683208840F00100F3
:100F9000208026884FF6F5300640A88869890843E6
:100FA00006432680A88929890843208105B0BDE829
:100FB000F083000000127A0040420F00A08601007A
:100FC00012B141F0010102E04FF6FE7319400182B7
:100FD000704701827047000070B504460D4600BF9F
:100FE0004FF400311C48FFF757FF0028F8D10121CA
:100FF0001948FFF739FF00BF18491748FFF7B8FE37
:101000000028F9D0002278211348FFF7D9FF00BF4C
:1010100013491148FFF7ACFE0028F9D021460E48CD
:10102000FFF7D7FF00BF0E49891C0B48FFF7A0FE52
:101030000028F8D029460848FFF7CBFF00BF084931
:10104000891C0548FFF794FE0028F8D001210248CA
:10105000FFF716FF70BD00000054004001000300C0
:101060008200070008B50121042000F0B7FA7020C3
:10107000ADF8000048208DF8030003208DF8020031
:1010800069460248FFF720FD08BD00000008014046
:1010900070B50024002540211748FFF7E9FD48B14D
:1010A00020211548FFF7E4FD20B110211248FFF779
:1010B000DFFDF8B90A2001F0FDF840210E48FFF7E6
:1010C000D7FD08B901240CE020210B48FFF7D0FD23
:1010D00008B9022405E010210748FFF7C9FD00B94F
:1010E000042402E0012001F0E5F82846691CCDB295
:1010F000C828F7DB204670BD0008014010B500F09D
:101100008DFAFFF7BFFC00F083FC00F0EFF910BD93
:1011100000BFFEE77047000070B5002100230F22DA
:10112000C47804B3154C246804F4E064C4F5E064A6
:10113000210AC1F10403CA40447804FA03F1847817
:101140001440214309010E4C0678A155047804F09F
:101150001F050124AC4005786D11AD0005F1E025B7
:10116000C5F8004109E0047804F01F050124AC40F3
:10117000044D0678761145F8264070BD0CED00E070
:1011800000E400E080E100E002490143024A11600E
:10119000704700000000FA050CED00E010B50020DB
:1011A00000F001F810BD70B50646002415E004F10A
:1011B000B001C8B200F035FF002000F032FF10206F
:1011C00000F02FFF002504E0304600F031FF681CDE
:1011D000C5B2802DF8DB601CC4B2082CE7DB70BD03
:1011E00010B5642001F066F8AE2000F01AFF202050
:1011F00000F017FF102000F014FFB02000F011FFE6
:10120000C82000F00EFF002000F00BFF102000F0BF
:1012100008FF402000F005FF812000F002FFFF20C2
:1012200000F0FFFEA12000F0FCFEA62000F0F9FE79
:10123000A82000F0F6FE3F2000F0F3FEA42000F00E
:10124000F0FED32000F0EDFE002000F0EAFED520F5
:1012500000F0E7FEF02000F0E4FED92000F0E1FE0F
:10126000222000F0DEFEDA2000F0DBFE122000F08B
:10127000D8FEDB2000F0D5FE202000F0D2FE8D202D
:1012800000F0CFFE142000F0CCFEAF2000F0C9FE2D
:1012900010BD70B504460D4605F1B001C8B200F0AE
:1012A000C0FE102141EA141000F0BBFE04F00F0153
:1012B00041F0010000F0B5FE70BD2DE9F041074698
:1012C0008846154600241BE0285D802810DD621C3E
:1012D000A95C285D00F0EAF806463EB1711ECAB26C
:1012E00007EBC401C8B2414600F010F8A41C07E0A7
:1012F0002A5D07EBC401C8B2414600F0A7F8641CA0
:10130000285D0028E0D1BDE8F08100002DE9F04122
:1013100080460E46174600247D0131464046FFF7C1
:10132000B8FF00BF06E00D49485D00F081FE6D1C6E
:10133000601CC4B2102CF6DB701CC1B24046FFF733
:10134000A8FF002406E00549485D00F071FE6D1C11
:10135000601CC4B2102CF6DBBDE8F081E90500206A
:101360002DE9F0470646894617469A464FF0000891
:1013700000240025BAF1010F03D0BAF1020F5ED1AB
:1013800025E020E0785D203800F0FF087E2E04DDA7
:10139000002609F1010000F0FF0949463046FFF739
:1013A00078FF002409E008EB4801264A02EB4101DE
:1013B000085D00F03DFE601CC4B2062CF3DBB01DDE
:1013C000C6B2681CC5B2785D0028DBD137E032E0D8
:1013D000785D203800F0FF08782E04DD002609F142
:1013E000010000F0FF0949463046FFF752FF002494
:1013F00007E004EB0811144A505C00F019FE601C71
:10140000C4B2082CF5DB09F10100C1B23046FFF788
:1014100040FF002408E004EB081108310A4A505C40
:1014200000F006FE601CC4B2082CF4DB06F10800D4
:10143000C6B2681CC5B2785D0028C9D100BF00BF24
:10144000BDE8F087F0330008183600082DE9F041B8
:1014500080460E46174600250024A7F12000C5B29D
:1014600031464046FFF715FF00BF07E004EB0511CA
:101470000D4A505C00F0DCFD601CC4B2082CF5DBAA
:10148000701CC1B24046FFF704FF002408E004EBE3
:1014900005110831044A505C00F0CAFD601CC4B25A
:1014A000082CF4DBBDE8F0811836000810B50246C0
:1014B0000B46002111E00C48405C90420BD10A4CD5
:1014C000481C205C984206D10C4601EBD4704010B9
:1014D000401CC0B210BD881CC1B20348405C00284B
:1014E000E9D100BFF6E700008405002000B589B00F
:1014F0006020ADF814000020ADF81C000120ADF80C
:1015000016004FF4FA70ADF81A0005A9000700F0B4
:101510005DFB0821C80600F097FB05A94FF080404D
:1015200000F0FAFA0821C80600F046FB01218807FE
:1015300000F056FA0121880700F05EFA6020ADF84D
:1015400004000020ADF80C000120ADF806004FF4B7
:10155000FA70ADF80A0001A9084800F07DFA0821E8
:10156000064800F0CBFA0121044800F039FA0121C5
:10157000024800F041FA09B000BD0000000400403C
:101580007047000001460020034A506820F44040A4
:1015900008435060704700000010024029B1064A1D
:1015A000D2690243044BDA6104E0034AD269824300
:1015B000014BDA61704700000010024029B1064A71
:1015C00012690243044B1A6104E0034A1269824320
:1015D000014B1A61704700000010024029B1064A11
:1015E00092690243044B9A6104E0034A9269824380
:1015F000014B9A61704700000010024029B1064A71
:10160000D2680243044BDA6004E0034AD2688243A2
:10161000014BDA60704700000010024010B5012154
:101620000846FFF7BBFF01210920FFF7D7FF012183
:101630000948FFF7D5FA01210848FFF7D1FA01213F
:101640000220FFF7ABFF01210520FFF7C7FF0121B3
:101650000248FFF7C5FA10BD000218000002300072
:1016600030B500210022002400232D4D6D6805F0C7
:101670000C0121B1042905D0082923D105E0294D09
:10168000056022E0274D05601FE0254D6D6805F4DB
:101690007012234D6D6805F48034022505EB9242EB
:1016A0001CB9214D554305600BE01D4D6D6805F4D7
:1016B00000351DB11C4D5543056002E0194D5543E1
:1016C000056002E0174D056000BF00BF144D6D6856
:1016D00005F0F0010909154D6B5C0568DD404560BA
:1016E0000F4D6D6805F4E061090A104D6B5C4568AB
:1016F000DD4085600A4D6D6805F46051C90A0B4DE7
:101700006B5C4568DD40C560054D6D6805F4404182
:10171000890B074D6B5CC568B5FBF3F5056130BD02
:101720000010024000127A0000093D003A0C00202F
:101730004A0C002030B503460C461546002207E04F
:10174000184600F008F824F812009B1C501C82B2C6
:10175000AA42F5DB30BD0146088870472DE9F05FED
:1017600080468A461746B8F1006F02D33348804559
:1017700001D3BDE8F09FFFF717F9A8F1006B4FEA1E
:10178000DB25CBF34909C9F58064A74200DC3C4660
:101790004DE04FF0006101EBC5204A142849FFF7E6
:1017A000C9FF00260BE009EB0600254931F81000BF
:1017B0004FF6FF71884200D003E0701C86B2A6424B
:1017C000F1DB00BFA6421BDA4FF0006101EBC52040
:1017D000FFF780F8002608E03AF8160006EB09014A
:1017E000174A22F81100701C86B2A642F4DB4FF0B3
:1017F000006101EBC5204A14114900F023F804E010
:1018000022465146404600F01DF8A74200D10FE0A5
:101810006D1C4FF000090AEB440AA044381B87B244
:10182000B7F5806F02DD4FF4806400E03C46B0E71E
:1018300000BFFFF78FF800BF9BE70000000008081B
:101840005C0C00202DE9F04105460E4617460024A9
:1018500007E036F814102846FFF786F8AD1C601C28
:1018600084B2BC42F5DBBDE8F081704710B500F0F2
:1018700001F810BD0CB500200190009033480068BD
:1018800040F480303149086000BF3048006800F4FF
:10189000003000900198401C0190009818B9019800
:1018A000B0F5A06FF1D12948006800F4003010B104
:1018B0000120009001E0002000900098012843D111
:1018C0002348006840F0100021490860084600687D
:1018D00020F0030008600846006840F0020008603D
:1018E0001A484068194948600846406848600846F8
:1018F000406840F4806048600846406820F47C10EE
:1019000048600846406840F4E810486008460068AF
:1019100040F08070086000BF0C48006800F0007064
:101920000028F9D00948406820F0030007494860C2
:101930000846406840F00200486000BF0348406825
:1019400000F00C000828F9D10CBD00000010024086
:1019500000200240042808D14FF0E021096941F03D
:1019600004014FF0E022116107E04FF0E021096926
:1019700021F004014FF0E022116170477047000030
:1019800010B51348006840F001001149086008468E
:101990004068104908400E494860084600680E49F2
:1019A00008400B4908600846006820F48020086061
:1019B0000846406820F4FE0048604FF41F0088602D
:1019C000FFF754FF4FF000600449086010BD0000AD
:1019D000001002400000FFF8FFFFF6FE08ED00E0F7
:1019E00021B1028842F08002028004E002884FF6B2
:1019F0007F731A400280704721B1028842F00102D1
:101A0000028004E002884FF6FE731A40028070479D
:101A100000B587B06420ADF814000020ADF81000C8
:101A2000ADF81600ADF8120004A94FF0804000F0A8
:101A30001FF96420ADF808000020ADF80400ADF8EF
:101A40000A00ADF8060001A9024800F011F907B03C
:101A500000BD00000004004070B5002400220023F7
:101A6000058C4FF6EF7635400584028C8388048B15
:101A700048F6FF752C404FF6FF452C400D884FF679
:101A8000FF7606EA05252C434FF6DF752A400D89BF
:101A900006EA05152A434D8806EA05152A43154D21
:101AA000A84202D0144DA8421DD14FF67F752A409E
:101AB0004D894FF6FF7606EA05152A434FF6BF75A6
:101AC0002A408D8806EA05152A434FF6FF352B403C
:101AD0004FF2FF752B408D8906EA85052B43CD8992
:101AE00006EA85052B4383800483CD88058702841D
:101AF00070BD0000002C0140003401400A46002166
:101B0000018B4FF2FF7319404FF6FF7303EA022374
:101B1000194301837047000070B5002400220023A0
:101B2000058C4FF6FF6635400584028C8388848BD4
:101B30004FF68F752C404FF6FC752C400D882C43CA
:101B40004FF6FF552A400D894FF6FF7606EA052528
:101B50002A434D8806EA05252A43154DA84202D09E
:101B6000144DA8421DD14FF2FF752A404D894FF602
:101B7000FF7606EA05252A434FF6FF352A408D8871
:101B800006EA05252A434EF6FF752B404DF6FF75F4
:101B90002B408D8906EA05152B43CD8906EA0515EC
:101BA0002B4383808483CD888587028470BD0000A9
:101BB000002C0140003401400A460021818B4FF681
:101BC000F7731940114381837047000070B50022FC
:101BD00000230024058C4EF6FF7635400584038CE7
:101BE0008488828B48F6FF752A404FF6FF452A40CD
:101BF0000D884FF6FF7606EA05252A434DF6FF7558
:101C00002B400D8906EA05352B434D8806EA05353C
:101C10002B430B4DA84202D00A4DA84208D14BF6E7
:101C2000FF752C408D894FF6FF7606EA85152C430B
:101C300084808283CD88A0F84050038470BD00006A
:101C4000002C0140003401400A460021818B4FF2F4
:101C5000FF7319404FF6FF7303EA02231943818390
:101C600070470187704781877047A0F84010704720
:101C7000002202881D4B98420ED01D4B98420BD07B
:101C8000B0F1804F08D01B4B984205D01A4B9842B8
:101C900002D01A4B984204D14FF68F731A404B88EA
:101CA0001A43174B984207D0164B984204D04FF670
:101CB000FF431A40CB881A4302808B8883850B88A8
:101CC00003850A4B98420BD0094B984208D00E4B23
:101CD000984205D00D4B984202D00D4B984201D14D
:101CE0000B7A03860123838270470000002C014099
:101CF000003401400004004000080040000C004097
:101D00000010004000140040004001400044014029
:101D10000048014070B5FEF7E7FF04460EA0FEF74D
:101D20009BFA18A0FEF798FA21A0FEF795FA0AA0F0
:101D3000FEF792FA4FF47A7094FBF0F5642094FB6E
:101D4000F0F100FB11463246294622A0FEF784FA44
:101D50000220FEF7AEFD70BD2F2A2A2A2A2A2A2A3F
:101D60002A2A2A2A2A2A2A2A2A2A2A2A2A2A2A2AD3
:101D70002A2A2A2A2A2A2A2A2A2A2A2A2A2A2F0DDB
:101D80000A0000002F2A20202020202020202020B0
:101D90002020202020202020202020202020202043
:101DA0002020202020202020202A2F0D0A000000A3
:101DB0002F2A202020205468697320697320414411
:101DC000432044656D6F21205E5F5E2020202A0D38
:101DD0000A000000720A202043757272656E74203A
:101DE00074656D7065726174757265203A25642E34
:101DF0002564202020200D0A0000000010B540F2CC
:101E000025511D4800F04AF810B31B4800F002F9B4
:101E1000C4B21A48008800F40040C8B917480088C6
:101E200000F4804060B10A2C03D0002013490880E0
:101E300020E01248008840F400401049088019E072
:101E40000D2C06D10D48008840F480400B490880D5
:101E500010E00A480088C0F30D0009490C540748F7
:101E60000088401C0549088008460088C72801DD15
:101E70000020088010BD000000380140380C002010
:101E80005C14002021B1828942F40052828104E076
:101E900082894DF6FF731A408281704770B5024601
:101EA000002400230025002040F66A16B14200D12C
:101EB00000BFC1F3421501F01F03012606FA03F328
:101EC000012D02D19689334006E0022D02D1168AF7
:101ED000334001E0968A33400C12012606FA04F4DE
:101EE0001688344013B10CB1012000E0002070BD11
:101EF000F0B50346002400260025002040F66A17AE
:101F0000B94200D100BF1846C1F3421401F01F06C8
:101F1000012707FA06F5012C01D10C3004E0022C50
:101F200001D1103000E014301AB107682F43076068
:101F300002E00768AF430760F0BD00002DE9F047FD
:101F400086B005460E460024A24600BFA1460027E3
:101F5000B08900B100BF2F462C8A4CF6FF700440B8
:101F6000F08804432C82AC894EF6F3100440B0880C
:101F700031890843718908430443AC81AC8A4FF628
:101F8000FF400440B0890443AC8201A8FFF768FB1E
:101F90001F48874202D1DDF810A001E0DDF80CA057
:101FA000A88900F4004040B10AEBCA0000EB0A1017
:101FB00031684900B0FBF1F807E00AEBCA0000EB1A
:101FC0000A1031688900B0FBF1F86420B8FBF0F02A
:101FD00004012009642101FB1089A88900F4004054
:101FE00040B1322000EBC900B0FBF1F000F0070077
:101FF000044308E0322000EB09106421B0FBF1F04B
:1020000000F00F0004432C8106B0BDE8F08700000B
:102010000038014001468888C0F30800704700BFBF
:10202000FEE710B5044621460020FEF7D5FF10BD9F
:1020300010B5044621464020FEF7CEFF10BD0146F4
:1020400000BF704710B56D48006800287EDD6B4802
:102050000068012869D0022829D0042826D1FFF77A
:102060009DF867480068401E65490860084600689A
:1020700068B964480068002804DD62480068401EB2
:10208000604908605E480068401C5D4908605C4823
:1020900000685C49096808445B490860594802685F
:1020A000574801685948006800F02AF9A4E0FFF792
:1020B00075F853480068401C51490860084600689C
:1020C000042815DD084600684E49096808444F4950
:1020D0000968B1F90010884204DC4A480068401CD5
:1020E0004849086046480068401E454908600CE0C1
:1020F00046480068B0F9000041490968884204DA9E
:102100003F480068401E3E4908603D4800683D4920
:10211000096808443C4908603A4802683848016840
:102120003A48006800F0ECF866E03748006801289B
:1021300023D136480068364988421ED0FFF72EF872
:1021400031480068401E00EB800000E055E02F4958
:10215000096801EB800000692C49086001202849CA
:102160000860002027490860084602682448016882
:102170002648006800F0C4F83DE023480068401E8F
:1021800000EB80002149096801EB8000C068E0B1E4
:10219000FFF704F81C480068401E00EB80001B4954
:1021A000096801EB8000C0681849086001201449E3
:1021B000086000201349086008460268104801685A
:1021C0001248006800F09CF815E00F480068401EB7
:1021D00000EB80000D49096801EB8000806850B178
:1021E00009490968491E01EB8101084A126802EB9E
:1021F00081018868804700BF00BF10BD0C0400202B
:102200000004002004040020080400206C050020C5
:102210001804002010B50E490E4801620E494163B2
:102220000E49816401200E49086000200D490860B4
:102230000B480068096808440B49086009480268AF
:10224000074801680948006800F05AF810BD00000E
:102250007C04002018040020E00400201C0500205D
:102260000004002004040020080400206C05002065
:1022700010B56FF00400FFF76DFB0A4800680A49CB
:10228000B0FBF1F0094908700846007800EB400106
:10229000C1EBC0104FF6FF7101EAC000044908808D
:1022A00010BD00007005002000127A002E0C0020E6
:1022B000300C00200146114A12884A434FF0E023B7
:1022C0005A6100229A611A46126942F001021A61AB
:1022D00000BF4FF0E022106900F001021AB100F4D3
:1022E0008032002AF5D04FF0E022126922F001027C
:1022F0004FF0E0231A6100229A617047300C0020F1
:102300002DE9F04704460D4616464FF010094FF0F0
:1023100000080220C0EB4500C1B20FA20020FEF76A
:10232000CCFF37460FE007EB870304EB830308F08D
:10233000FF0109F0FF005A68FEF7BFFF08F1020035
:102340001FFA80F87F1C311DB4F9000000F058FA24
:10235000B842E8DCBDE8F0872D3E000010B5064825
:102360000649086006484860064888600C2206480E
:10237000FFF7F4F910BD000080F33948500C00203D
:1023800080F4394800003E43009000082DE9FF47E3
:10239000022400274FF0000859498868594900F085
:1023A0005BFF824600F010FF054642F2107095FB7D
:1023B000F0F0C0B28DF80000642095FBF0F00A2127
:1023C00090FBF1F201FB1200C0B28DF80100642015
:1023D00095FBF0F100FB1150C0B28DF80200FEF742
:1023E000DDFE8CE0FEF754FE06461420FFF762FF88
:1023F000002E40D0012E05D10FB9012000E00020B1
:10240000074633E0022E0CD117B9601CC4B22DE090
:10241000022C2BDC1DF80400401EC0B20DF8040095
:1024200024E0032E14D1FEF7B9FE3748026837487E
:10243000016837480068FFF763FF284600F0E0FEB8
:102440002F4988600C223348FFF788F9BDE8FF87E1
:10245000042E0BD117B9601EC4B207E0022C05DCB4
:102460001DF80400401CC0B20DF80400032C00DB72
:102470000224FEF793FE08F10108B8F1140F0EDCF8
:102480002CB925A202214820FEF717FF13E0E10036
:102490004831C8B220A20221FEF70FFF0BE0B8F1CD
:1024A000280F06DC3FB91DA202210020FEF705FF20
:1024B00001E04FF000084FF0000913E09DF8000024
:1024C00042F2107148439DF8011001EBC10202EB8A
:1024D000011100EB81009DF80210451809F101007F
:1024E00000F0FF09B9F1030FE8DB2A4610A101A8AB
:1024F000FDF7BEFE01AA00210846FEF7DEFE71E7E9
:10250000500C002000007A44040400200004002045
:102510006C050020009000085E00000020202020B4
:10252000202020202020202020202020000000002B
:10253000D1A7BAC5333A2564000000003EB5FEF7C6
:102540002DFE0C2222492348FFF7F4F820490868A1
:1025500000F03AFE05462A461FA16846FDF788FEB0
:102560006A4600211020FEF7A8FE1949486800F0CD
:102570002BFE05462A461BA16846FDF779FE6A46F2
:1025800002211020FEF799FE1149886800F01CFE18
:1025900005462A4616A16846FDF76AFE6A460421EA
:1025A0001020FEF78AFE11E0FEF772FD04461420AB
:1025B000FFF780FE54B1FEF7F1FD104802681048A5
:1025C000016810480068FFF79BFE3EBDECE7000085
:1025D000500C002000900008D1A7BAC5313A2564FC
:1025E00000000000D1A7BAC5323A256400000000FF
:1025F000D1A7BAC5333A25640000000004040020C6
:10260000000400206C05002000BF054A128802F07B
:102610004002002AF9D0C2B2014B1B1D1A8070473C
:102620000038014010B588B0044640F6C41084421A
:102630000EDA01221CA16846FDF71AFE6A46062141
:102640001020FEF73AFE00214FF08040FFF70BFB11
:1026500040F6C410844211DD40F6B83084420DDAF1
:10266000012215A16846FDF703FE6A4606211020E7
:10267000FEF723FE00211448FFF7F3FA40F6B830C6
:1026800084420EDD012211A16846FDF7F1FD6A4684
:1026900006211020FEF711FE00214FF08040FFF7C9
:1026A000E4FA08B010BD0000315B2D302C32355DEE
:1026B000C2CCC9AB25640000312832352C33305DE3
:1026C000C0B6C9AB25640000000400403128333097
:1026D0002C3130305DBAECC9AB2564001CB5FEF777
:1026E0005DFD012227A16846FDF7C2FD6A46032170
:1026F0002020FEF7E2FD00214FF08040FFF7B5FA01
:1027000044F62060FFF7D6FD40F2E7314FF08040FD
:10271000FFF7ABFAFEF742FD01221CA16846FDF768
:10272000A7FD6A4603212020FEF7C7FD00214FF0D8
:102730008040FFF798FA44F62060FFF7BBFD40F2B7
:10274000E7314FF08040FFF78EFAFEF727FD0122B8
:1027500010A16846FDF78CFD6A4603212020FEF794
:10276000ACFD00210D48FFF77CFA44F62060FFF72E
:10277000A1FD40F2E7310948FFF773FAFEF70EFDBD
:102780001CBD000031BAECC9AB25640031C2CCC914
:10279000AB25640031C0B6C9AB256400000400401D
:1027A000FFF766FD4FF4A060FEF7EEFCFEF702FBBC
:1027B000FEF716FDFEF7F2FCFEF754FC00F028F8D9
:1027C000FDF7C2FEFDF794FFFEF798FCFFF722FD30
:1027D000FFF7C4FD0C2207490748FEF7ABFF08E0EE
:1027E000FEF756FC05490860FFF72CFC1420FFF7A4
:1027F00061FDF5E7500C0020009000080C0400205B
:1028000002468A4201DA104670470846FCE700009B
:1028100000B587B0012144F20400FEF7DFFE4FF45B
:102820000070ADF8180003208DF81A0018208DF8FC
:102830001B0006A91D48FEF747F94FF48060ADF86C
:10284000180004208DF81B0006A91848FEF73CF973
:1028500025208DF8040003208DF805008DF8060072
:1028600001208DF8070001A8FEF756FC4FF4165022
:1028700002900020ADF80C00ADF80E00ADF810008D
:10288000ADF814000C20ADF8120002A90848FFF7BB
:1028900055FB012240F225510548FFF729FB012194
:1028A0000348FFF7EFFA07B000BD00000008014041
:1028B0000038014010B590B0FEF770FC012214A161
:1028C00001A8FDF7D5FC01AA00210820FEF7F5FCC0
:1028D0001449086800F078FC0446224612A10BA8AF
:1028E000FDF7C6FC0BAA03211020FEF7E6FC0D49FC
:1028F000486800F069FC044622460EA106A8FDF7D0
:10290000B7FC06AA06211020FEF7D7FC10B010BDB8
:10291000B8D0D0BBCAB9D3C331285E4F5E29256475
:1029200000000000500C0020256420BAC2BEC3B3D2
:10293000CC000000256420D4C6D2DDD1F400000014
:1029400010B591EA030F48BF83F0004300F12E83D6
:10295000841A71EB030C05D2121943EB0C03001B14
:1029600061EB0C01DFF824E14FEA1154A4EB135C96
:102970001EEA430F18BF9EEA445F73D023EA0E039A
:10298000DCF1200E21EA045143F4801332D322FA01
:102990000CFE10EB0E0023FA0CFE41EB0E01CCF105
:1029A000200E03FA0EFE10EB0E0051F10001B1F5FE
:1029B000801FCCF1200E32D201EB045112FA0EF23C
:1029C000BDE8104058BF7047401C38BF5FEA420264
:1029D00018BF7047002814BF20F0010041F100012A
:1029E0004FEA410313F5001F38BF7047A1F1C04102
:1029F00000F0CEBA012A43EB0302ACF1200CDCF16B
:102A00001F0E32BF4FF0000E23FA0CF310EB030041
:102A100041EB0451B4EB115FD0D0A1EB045101F5AF
:102A2000801149085FEA300001EB04510ED350F1E8
:102A3000000038BF12FA0EFE08D1BDE81040C9E709
:102A4000401C38BF5FEA4202CAD1C3E7BDE810406C
:102A50004FEA410313F5001F38BF7047A1F1C04191
:102A600000F096BA9EEA445F08D011EA5E0FBDE816
:102A7000104004BF01F0004100207047BDE8104045
:102A800070B500F037FA00BF64FBBE3E0000E0FF07
:102A90002DE9C04130B4DFF8A0C23CEA111418BFE0
:102AA0003CEA131400F0EC8081EA03051CEA1114DF
:102AB00044EAD57418BF1CEA131500F0C780A4EBD4
:102AC00005044FF0004545EAC12145EAC32341EA28
:102AD000505143EA525304F17F74994204F5003493
:102AE0004FEAC0204FEAC22208BF904200F09C800B
:102AF0004FEA13650FF24016765D4FEA134506FB69
:102B000005F7C7F1807706FB07F74FEAD737A7FB32
:102B100003687642C8F58038A7FB06CE38BFA8F117
:102B2000010807FB08E64FF0000EA6FB028CE6FB4F
:102B300003CEDCF1000CCEF1004E38BFAEF1010E39
:102B4000A6FB0C584FF000074FF00005E6FB0E8780
:102B5000A1FB08C6A0FB07CE16EB0E0645F100054B
:102B6000E1FB076515F1E04E7EBFA4F580345FEA16
:102B700046066D4116F1800745F100054FEA17271B
:102B80004FEA066647EA0567A6F1DE46B6F1805FC2
:102B90004FEA15251FD9384624F0010C05EBC47106
:102BA000BCF1FE6F01EB0C1102D8F0BCBDE8008156
:102BB00024425CBF01F5801E9EEAC47F02D4F0BCB3
:102BC000BDE80081244238D4F0BCA1F1C041BDE889
:102BD000004100F0DDB94FEAD22242EA43524FEA07
:102BE000D323A7FB02864FEAD02040EA415007FBDF
:102BF00003661EEA0E0F4FEAD12105FB026658BF9D
:102C0000A6EB0056B6EB00564FEA520E4EEAC37ED4
:102C100018EB0E0E56EB530EBDD518EB02085E41B5
:102C20007F1C55F10005B6E74FF480154FF0000703
:102C30004FF000064FF00008ADE7F0BC4FF0000089
:102C400001F1C04101F00041BDE8008111EA0C1F13
:102C50000CEA131500D00CE013EA0C1F00F02580DD
:102C60004FF00000F0BC81EA030101F00041BDE833
:102C70000081F0BCBDE8004181EA030100F088B9A1
:102C8000F0BCBDE8004170B500F034F9097EFC3EAF
:102C900000F007B881EA03014FF0000001F00041A5
:102CA000704781EA030100F073B9F0BCBDE8004150
:102CB0004FF0000021497047FFFDFBF9F7F5F4F2F2
:102CC000F0EEEDEBE9E8E6E4E3E1E0DEDDDBDAD8C7
:102CD000D7D5D4D3D1D0CFCDCCCBCAC8C7C6C5C425
:102CE000C2C1C0BFBEBDBCBBBAB9B8B7B6B5B4B33C
:102CF000B2B1B0AFAEADACABAAA9A8A8A7A6A5A427
:102D0000A3A3A2A1A09F9F9E9D9C9C9B9A999998EA
:102D10009797969595949393929191908F8F8E8E8D
:102D20008D8C8C8B8B8A898988888787868585841A
:102D300084838382828181800000FF070000F87F06
:102D40004FEA41034FEA5353A3F58063D3F11E03C7
:102D5000C8BFD3F1210C0CDD4FF0004242EAC12282
:102D600042EA505232FA03FC8CEAE17CACEBE170AF
:102D70007047102BC4BF0020704703F5787CBCF16E
:102D8000FF3F04D06FF0004282EA2100704770B527
:102D900000F0B0F84992248000207047F2E700006C
:102DA000DFF848C170B51CEA111E1EBF1CEA1315DE
:102DB0009EEA0C0F95EA0C0F00F06F8081EA030485
:102DC00023EA4C134EEAD47E21EA4C1141F48011DF
:102DD00043F48013AE44A1FB024CA0FB0365AEF1AB
:102DE0007F7E361955EB0C05A1FB034C4CF100031B
:102DF000A0FB021C16EB0C06654153F100030942CF
:102E000018BF46F0010613F4007F0BD14FEA0331DF
:102E10004FEA0530340341EA155140EA16506FF08D
:102E200003020AE04FEAC3214FEAC520F40241EA57
:102E3000555140EA56506FF0020202EB2E4201EB70
:102E4000025585EACE710AD05FEA440C18BF24F01F
:102E5000004450F1000041F1000120EAD47040F23A
:102E6000FE7C624500D270BDA84214BF4FF0804482
:102E70004FF04044002E08BF0024BEF1806FA8BF71
:102E8000A1F1C041BDE8704080F282804FF00000A7
:102E900001F1C04101F0004170479EEA0C0F0CEABD
:102EA000131518BF95EA0C0F06D04FF0000081EA09
:102EB000030E0EF0004170BD00F01CF88900013EC9
:102EC00000F007B800F009B84FEA430C5FEA5C5C19
:102ED00008D081EA030100F05BB84FEA410C5FEAD9
:102EE0005C5CF6D14FF00000014970470000FF071D
:102EF0000000F87F0EF1020E2EF0030E5EF8046B58
:102F0000364205D4012A43EB030515F5001F12D8FC
:102F1000012841EB010C1CF5001F0CD80ED14FEA23
:102F2000D17C15F5001F0CEB4C0C0CF1020C08BF0A
:102F30004CEBD37C04E04FF0080C01E04FEAD37C6B
:102F40000CEB4C0526FA05F606F00706B6F1040C64
:102F500006D20EEB860CBDE870404CF0010C6047C9
:102F6000DFE80CF0090B02024FF000414FF00000C7
:102F7000A1F5002170BD19461046012851EB01044E
:102F800018BFD4F5001484BF002001F0004170BDCB
:102F90000808A0F500114FEA3101704710B591EA19
:102FA000030F48BF83F000433FF5D2AC841A71EBA6
:102FB000030C07D212198CF0004C43EB0C03001BDE
:102FC00061EB0C01DFF8A4E14FEA1154A4EB135CB0
:102FD0001EEA430F18BF9EEA445F00F0B08023EA68
:102FE0006E03524221EA0451C3EB6E0338BF5B1EED
:102FF000DCF1200E25D322FA0CFE10EB0E0043FA72
:103000000CFE41EB0E01CCF1200E03FA0EFE10EB8C
:103010000E0051F10001CCF1200E29D412FA0EF26B
:1030200001EB0451BDE8104058BF7047401C1CBF65
:10303000B2F1004F704700280CBF491C20F001007E
:10304000704712EB020E43EB030218BF4FF0010E64
:103050004EEA4202ACF1200CDCF11E0E54D943FAC8
:103060000CFE10EB0E0051F1FF31CCF11E0ED5D548
:103070000EF1010E12FA0EFE404141EB010101EB8F
:10308000445C5FEA5C5C10D910EBDE7001EB04512C
:1030900038BFBEF1004FBDE8104018BF7047002890
:1030A0000CBF491C20F00100704730D24FEAD42CED
:1030B00011F5001124F400641BD0B1FA81F20B3A2F
:1030C000A41AA41ED2F12003914030FA03F319434D
:1030D000904001EBCC71002C01EB0451BDE8104095
:1030E000A8BF704701F1C0414FF0000001F000415E
:1030F0007047B0FA80F310FA03F100D110BDE41A62
:10310000173C4805C90AE4E701EB045110BD49101A
:1031100001EB0451BDE810404FEA300002E04FF0EF
:10312000000170474A0008BF0042F8D0B2F5001F06
:1031300028BF704701F000414FF0000070479EEA41
:10314000445F07D011EA5E0FBDE8104004BF0021C4
:1031500000207047BDE8104070B5FFF7CBFE00BF00
:1031600040DFF63E83F00041104670470000E0FF6C
:1031700043004FEAD30C4FEA3C0C43401FBF4007CB
:103180000CF1605113F0FE4F70471CF0006F03D13B
:1031900000200CF0004170470CF0004343EA5070EF
:1031A00010B540EACC0000F0D8F800BF0000009253
:1031B0004FEA0001FFF7ECBE4FF000414FF0000076
:1031C000A1F500217047000041000B0ED3F19E02D3
:1031D00008D950F400034FEA032323FA02F048BF52
:1031E0004042704710B500F0B8F800BF4992248003
:1031F000002070476FF0004282EA20007047000014
:1032000010F0004148BF4042B0FA80F310FA03F2D8
:10321000C3F19D030BD051EAC35101EB12205306B9
:1032200038BF704700F1010008BF20F0010070476F
:10323000B0FA80F310FA03F2C3F19D030AD0D90566
:1032400001EB1220530638BF704700F1010008BFA0
:1032500020F00100704700004FF47F0C1CEAD012F0
:103260001EBF1CEAD11392EA0C0F93EA0C0F00F078
:10327000478090EA010F48BF42F480724FF0004C43
:103280004CEA00204CEA012102EB0302A0FB0113EF
:10329000A2F50002002918BF43F001035B0028BF1C
:1032A0004FEA330342EB22425FEA132C4CEBC2504D
:1032B0002EBFBCEB436FB2F57C0F70474FEA036C37
:1032C000BCF1004F08BF20F00100B2F57C0F38BF01
:1032D00070470BD582F0FF0212F5803FC8BF7047E0
:1032E00000F1C040D8BF00F00040704700F5000C6E
:1032F0005FEA4C0C48BF7047B0F1C04000F073B8B3
:1033000090EA010F0CEAD11348BF42F48072624583
:1033100038BF634504D280EA010000F000407047E6
:1033200010B500F01AF800BF8900013E00F007B8A0
:1033300000F009B85FEA410C5FEA1C6C08D080EA33
:10334000010000F050B85FEA400C5FEA1C6CF6D157
:103350004FF00040A0F5800070470EF1020E2EF0F5
:10336000030E5EF8044B244204D44FEA4102B2F14A
:103370007F4F11D84FEA4003B3F17F4F0CD80ED1E5
:103380004FEAD07CB2F17F4F0CEB4C0C0CF1020CED
:1033900008BF4CEBD17C04E04FF0080C01E04FEA91
:1033A000D17C0CEB4C0324FA03F404F00704B4F1D1
:1033B000040C06D20EEB840CBDE810404CF0010C5E
:1033C0006047DFE80CF0070802024FF00040A0F56C
:1033D000800010BD0846420018BFD2F1807288BF3D
:1033E00000F0004010BDFF2141EAD050C0057047F9
:1033F0000000000000000000002F00000000070097
:10340000070000147F147F1400242A7F2A12006210
:1034100064081323003649552250000005030000BC
:1034200000001C224100000041221C000014083E44
:1034300008140008083E0808000000A0600000080A
:10344000080808080000606000000020100804025E
:10345000003E5149453E0000427F4000004261511C
:103460004946002141454B31001814127F100027B6
:1034700045454539003C4A49493000017109050379
:1034800000364949493600064949291E00003636AA
:10349000000000005636000000081422410000140D
:1034A00014141414000041221408000201510906EA
:1034B00000324959513E007C1211127C007F49496B
:1034C0004936003E41414122007F4141221C007F9C
:1034D00049494941007F09090901003E4149497AAA
:1034E000007F0808087F0000417F41000020404124
:1034F0003F01007F08142241007F40404040007F90
:10350000020C027F007F0408107F003E4141413ED3
:10351000007F09090906003E4151215E007F09191B
:1035200029460046494949310001017F0101003F18
:103530004040403F001F2040201F003F4038403F98
:1035400000631408146300070870080700615149FC
:10355000454300007F41410000552A552A5500008F
:1035600041417F000004020102040040404040400D
:10357000000001020400002054545478007F4844A5
:10358000443800384444442000384444487F0038DC
:103590005454541800087E0901020018A4A4A47C05
:1035A000007F080404780000447D400000408084CF
:1035B0007D00007F102844000000417F4000007C17
:1035C00004180478007C0804047800384444443823
:1035D00000FC242424180018242418FC007C08046F
:1035E000040800485454542000043F444020003C48
:1035F0004040207C001C2040201C003C4030403CCF
:10360000004428102844001CA0A0A07C004464545E
:103610004C441414141414140000000000000000A2
:103620000000000000000000000000F800000000A2
:10363000000000333000000000100C06100C0600E3
:10364000000000000000000040C07840C07840004A
:10365000043F04043F040400007088FC08300000AC
:10366000001820FF211E0000F008F000E018000004
:1036700000211C031E211E0000F0088870000000BD
:103680001E2123241927211010160E00000000000F
:103690000000000000000000000000E0180402002C
:1036A000000000071820400000020418E00000009D
:1036B0000040201807000000404080F0804040009B
:1036C0000202010F01020200000000F000000000F1
:1036D0000101011F010101000000000000000000C5
:1036E00080B070000000000000000000000000003A
:1036F00000010101010101010000000000000000C3
:10370000003030000000000000000000806018045D
:10371000006018060100000000E010080810E0003A
:10372000000F102020100F00001010F80000000003
:103730000020203F2020000000700808088870004A
:1037400000302824222130000030088888483000CA
:103750000018202020110E000000C02010F80000EA
:1037600000070424243F240000F808888808080083
:103770000019212020110E0000E010888818000098
:10378000000F112020110E0000380808C83808006A
:103790000000003F000000000070880808887000EA
:1037A000001C222121221C0000E010080810E0006B
:1037B0000000312222110F00000000C0C0000000F4
:1037C0000000003030000000000000800000000019
:1037D0000000806000000000000080402010080011
:1037E00000010204081020004040404040404000DA
:1037F00004040404040404000008102040800000B5
:103800000020100804020100007048080808F000B9
:103810000000003036010000C030C828E810E00089
:103820000718272423140B000000C038E000000014
:10383000203C23020227382008F88888887000007E
:10384000203F202020110E00C03008080808380052
:10385000071820202010080008F808080810E000C9
:10386000203F202020100F0008F88888E80810006A
:10387000203F20202320180008F88888E80810003E
:10388000203F200003000000C03008080838000076
:1038900007182020221E020008F808000008F80877
:1038A000203F210101213F20000808F808080000FE
:1038B0000020203F2020000000000808F808080031
:1038C000C08080807F00000008F888C028180800A9
:1038D000203F20012638200008F8080000000000E2
:1038E000203F20202020300008F8F800F8F80800D9
:1038F000203F003F003F200008F830C00008F808D3
:10390000203F200007183F00E01008080810E000E2
:103910000F10202020100F0008F808080808F000F9
:10392000203F210101010000E01008080810E0001C
:103930000F18242438504F0008F8888888887000B1
:10394000203F2000030C3020007088080808380051
:103950000038202121221C00180808F80808180047
:103960000000203F2000000008F808000008F808C8
:10397000001F202020201F000878880000C8380879
:10398000000007380E010000F80800F80008F800F1
:10399000033C0700073C030008186880806818088B
:1039A00020302C03032C30200838C800C838080009
:1039B0000000203F2000000010080808C838080058
:1039C0002038262120201800000000FE02020200FC
:1039D0000000007F40404000000C30C000000000AC
:1039E000000000010638C00000020202FE000000D4
:1039F000004040407F00000000000402020204007A
:103A000000000000000000000000000000000000B6
:103A1000808080808080808000020204000000009E
:103A20000000000000000000000080808080000096
:103A30000019242222223F2008F800808000000084
:103A4000003F112020110E00000000808080000047
:103A5000000E112020201100000000808088F80056
:103A6000000E112020103F20000080808080000088
:103A7000001F222222221300008080F088888818EC
:103A80000020203F202000000000808080808000F7
:103A9000006B94949493600008F80080808000008C
:103AA000203F210000203F20008098980000000067
:103AB0000020203F20200000000000809898000097
:103AC00000C08080807F000008F8000080808000B7
:103AD000203F24022D302000000808F800000000DC
:103AE0000020203F20200000808080808080800097
:103AF000203F20003F20003F808000808080000029
:103B0000203F210000203F200000808080800000B6
:103B1000001F202020201F008080008080000000E7
:103B200080FFA12020110E00000000808080800016
:103B3000000E112020A0FF80808080008080800007
:103B400020203F2120000100000080808080800034
:103B50000033242424241900008080E080800000A9
:103B60000000001F202000008080000000808000F6
:103B7000001F202020103F20808080000080808057
:103B800000010E30080601008080008000808080E7
:103B90000F300C030C300F0000808000808080000C
:103BA0000020312E0E312000808080000080808037
:103BB00080818E70180601000080808080808000E7
:103BC0000021302C2221300000000000807C020205
:103BD00000000000003F404000000000FF00000027
:103BE00000000000FF0000000002027C80000000D6
:103BF0000040403F000000000006010102020404F2
:103C0000000000000000000048656C6C6F21284037
:103C10005E5F5E4029000000555341525400000091
:103C2000466C61736800000041626F7574207573A3
:103C300000000000C8B7B6A800000000B2CECAFD60
:103C4000B3F5CABCBBAF0000B7B5BBD8C9CFD2BBB8
:103C5000BCB60000B6C1C8A1D1A7BAC5000000001B
:103C6000D0DEB8C4D1A7BAC500000000B4AEBFDA38
:103C7000CDA8D0C500000000C8FDC9ABB5C6000086
:103C8000BBAACACFCEC2B6C800000000C9E3CACFE3
:103C9000CEC2B6C800000000CEC2B6C8C4A3BFE9F9
:103CA00000000000C43C000800000020500C000090
:103CB0006C010008F8430008500C0020380F000089
:103CC000C801000801182B804005AE80404040200C
:103CD0000111191103608080143C7EC11D187EC340
:103CE000A16B380910784E868303030101000D197A
:103CF00003020286CCFCB08081423C0806360202F8
:103D0000060602E9551C01010273480E040405E58C
:103D1000F5150D070342810101173908E81C09094F
:103D200011112122424284840408081010206244A8
:103D300084880810302040C080580D181C14140CC2
:103D4000B2E1041120202098100103040810206023
:103D5000408182C44C083020631280181440C0C1D6
:103D6000010206040E1A3141410181828604483065
:103D7000300C1402040C8C01210310C0C08A08BB53
:103D80001E0101020204EF5E0810111312631808ED
:103D900040F0515352742C0C1F2C4C5090150D2197
:103DA0002B8898AE2A807C3C20614108814C02021D
:103DB00002B80137D0084040E0E040404019963852
:103DC0001206040C0C1222204181810102070D0809
:103DD0001010FB29AE28080818102161C2860801BE
:103DE0005A1B0103F6590B190A1A088100107F109B
:103DF0001001090A06040414142460428381022F6E
:103E000001320513083CEA08140A1198140A116CCF
:103E1000140A1120141A28148BB5281829149A484A
:103E2000281318042A20141A78144BDD2618691454
:103E30001A8014CBE909141A8C14CB210814DA3433
:103E4000500A11036429141A18148B151D3C2914E7
:103E5000E93C0A11043C29141A3C148B5D233C29CB
:103E6000141A5414CB3D25141A60149A8D28290471
:103E7000112BA24A1B51106D010203040607080909
:103E8000B5DACEC2B6C8C4A3BFE9C8FDC9ABB5C6D2
:103E9000B2CECAFDB3F5CABCBBAFB6C1C8A1B2A20F
:103EA000CFD4CABEB7B5BBD8C9CFBCB6C8B7B6A801
:103EB000BBAACACFC9E3C9E8BAC2BEC3B3CCD4C691
:103EC000D2DDD1F4D1A7BAC5BAECC2CCC0B6D2BB50
:103ED000B4AEBFDACDA8D0C5D0DEB8C4B8D0D0BBA0
:103EE000CAB9D3C3180A08049392969A92FA94070F
:103EF00014FA0202200F4040472424140CFF04044B
:103F00002444241C251060028C2BFE920132FE18E2
:103F10000A04047E01407E42427E0234427E4028F2
:103F200009FC242424FC2526240812041010403007
:103F30008F80844C55252525554C808080180E1087
:103F400010D0FF9014E4AFA4A4A4AFE4E3130403DF
:103F500012FF100B894B2A1A0E1A2A4B8880180B55
:103F6000202020FF2020080808FF041AF870180FEE
:103F700030100F884821110D030D11214181318A24
:103F8000840119401930A90111500E2010E824278E
:103F90002424E424342C20E01B3F42013A4305133F
:103FA00040781380701DFF201004012AFC051127A2
:103FB0008060180708306440807F180C2020A86CAF
:103FC0002A3928A82A6CA84F1110100282819092D9
:103FD0004A494524221008010202180C905234105C
:103FE000FF10345280708FA012081008829A566316
:103FF00022528E10088040330C3340801708088905
:10400000EA1888495F1AFC401201180CFF0186402B
:104010002018074080403FD01610F01F10F0100904
:1040200040E05847405060C0274022150816212A1A
:10403000FEA132FE358060F8071EFF40201008E028
:104040001A010B112E0402013F400112781D40405D
:1040500042CCA5400924A4243FA424A460100D7FD1
:104060002010888A4C29180F1828C8580A0202FE06
:10407000929292FE020680180E08180F080804FF9C
:10408000048440271827A019812C11F610012DF463
:10409000131010E02D42320F02012AFF0541294181
:1040A0002901298E111F40424458407F7B2F7F40B9
:1040B000504846408029013AC20613404019A612D2
:1040C000063440807F5D02040830A01AFCA02D2237
:1040D00022A36241280E201F2058475048454245E0
:1040E0004850405F18080202F2121212F2AA512838
:1040F0000B7F20202724242427202045613AFFEE2F
:10410000292E4909298149122E2030AC6330E62638
:104110000202625AC61010226722121240308F80AB
:10412000432C102C438010100484E45C44C4201001
:10413000E82724E4342CE0101002017F10103F80A7
:10414000601F09093F49897F1C100C44012B45C69B
:10415000061444140C1E8040201E2061391049D0E2
:10416000200CFC032020107F88888482E01D04043A
:104170000405041AFF042901313AFC2B3EFE424299
:104180004342A234FF40201008010608102040F8E6
:10419000180A101010FF109082FEAA0114FE42406F
:1041A00018100444827F81422A126E805E22538E50
:1041B00080D01342CC280A40A09E8282829EA020FA
:1041C0003A111D3F908840BE1D28464180201009AD
:1041D0004444C47F44C4444016FE0222DA06100A56
:1041E0008846300F40807F020C36FF0810080750C9
:1041F0000A8040300F080808C8381D80814040B44C
:104200001C04030C7F1940172424A4FE23222B3EF8
:104210002201223E180C080601FF010640494949C7
:104220007F042A418019012AC2053A42C0180C2095
:1042300070282423202020242830EF11299F180AD9
:1042400020F0282724E4342C2011201080403F4007
:1042500080A1918D83819FA5A9A1B849972BFC04CA
:104260000132FC49972BFF41011AFF401F30119684
:104270009090910416981413503039283E44847E4F
:1042800006050A114E808080BEA2011ABE0C41397B
:104290001B454484443C2F2030AC632018372963ED
:1042A00021180822672212121240012A7F053920A4
:1042B00012302B8092011AFE40392011180A221464
:1042C00048847F0408142239180EE4040FF404040F
:1042D000F444CF44444404F0180C7D44447D4445E8
:1042E000447C44457C401974A90101131B3C240102
:1042F0002AFF0539912B1F09013AFF06421F49FB8E
:10430000290152FC6B7F2001327F244042CC200ADD
:10431000E2222A2AF22A2622E0180F80403F40801B
:10432000FF898989BF89A9C9BF70158060F8071EF8
:104330000424242526621204220132FF2BF94901AC
:104340001AF940380D20F807F0A0904C5724A454D7
:104350004CA012FF300A1F80925249292412081BD8
:10436000048401180AFC4030CC0B0808F808122815
:104370000E7F2010100880402116081621403010B2
:104380000EFC04D4545454D4047F84C536041488D9
:104390006601480C63828292AB8482C10224CFA062
:1043A000300BFC5655FC801010FF101010083F1009
:1043B0002A134A867F2B4380C0299F1B04E49B1A43
:1043C000FF043BE40480280B80814529112F4141E3
:1043D0008181601BFE2201490539301B1F02012E1D
:1043E0007F020242824001152D01020304041808D5
:0843F00006070809020406B6E5
:0400000508000215D8
:00000001FF
